:100000000C9446000C9458000C9458000C94580022
:100010000C9458000C9458000C9458000C94580000
:100020000C9458000C9458000C9458000C945800F0
:100030000C9458000C9458000C94AC000C9458008C
:100040000C9458000C9458000C9458000C945800D0
:100050000C9458000C9458000C9458000C945800C0
:100060000C9458000C9458000C9458000C945800B0
:100070000C9458000C9458000C9458000C945800A0
:100080000C9458000C9458000C94580011241FBE76
:10009000CFEFD0E1DEBFCDBF21E0A0E0B1E001C0F5
:1000A0001D92A230B207E1F70E94F9000C94020100
:1000B0000C94000025EF32EC3DBD2CBD1FBC25E0AB
:1000C0002EBD009781F020E030E065EF72EC44E057
:1000D00006B602FEFDCF7DBD6CBD46BF2F5F3F4F14
:1000E00082179307A9F7089520E831EC3DBD2CBD98
:1000F0001FBC21E02EBD009781F020E030E060E8D9
:1001000071EC44E006B602FEFDCF7DBD6CBD46BF7E
:100110002F5F3F4F82179307A9F7089511BA8FEF0A
:1001200082BB869918C08AE090E00E94740086998C
:1001300012C01EBC17BEF8948FE085BB81E090E032
:100140000E945A008FEF85BB81E090E00E945A0028
:1001500085E08EBD789408951F920F920FB60F928E
:1001600011242F933F934F935F936F937F938F93BC
:100170009F93AF93BF93EF93FF93F8948091000107
:10018000909101010196909301018093000185B344
:10019000809585BB85EF92EC9DBD8CBD85E08EBDC5
:1001A0000E948E007894FF91EF91BF91AF919F9143
:1001B0008F917F916F915F914F913F912F910F9010
:1001C0000FBE0F901F90189511BA8FEF82BB8799C1
:1001D0000FC08AE090E00E947400879909C085E012
:1001E0008EBD85EF92EC9DBD8CBD84E087BF789479
:1001F00008958FEF84BB85BB78940E94E4000E9431
:080200008E00FBCFF894FFCF44
:00000001FF
